:1054F000202020442652204169726C6162202020C5
:1055000000C0002020496E697469616C697A696E17
:1055100067202000436F6E666967206368616E676D
:1055200065640080005365637572697479206F66E5
:105530006620202020002020202020202020202045
:105540002020202020200054657374206D6F646536
:10555000202020202020200084004F6666206174D7
:10556000204D6F64756C6520787800274578742E1F
:105570002072656D6F746520496E2700274661644F
:105580006572204F6E2720202020202000274355C1
:105590004527202020202020202020202000274FC9
:1055A0004E272020202020202020202020200027DF
:1055B0004C494E452042272020202020202020003A
:1055C000274D49432F52494E472720202020202095
:1055D00000274553434150452720202020202020EC
:1055E000200027454E5445522720202020202020EF
:1055F00020200027524947485427202020202020DF
:105600002020200027555027202020202020202047
:10561000202020200027444F574E272020202020E4
:10562000202020202000274C4546542720202020E1
:105630002020202020200027435545205245534557
:1056400054272020202020002743617264205377B4
:0956500069746368272020200022
:1046AA005E0010442652204169726C6162207632A3
:1046BA002E3034202D2030382F3230303600000092
:1046CA000051070C303132333435363738394142EC
:1046DA0043444546476044045854696D6572202036
:1046EA00202020202020202020004D6F64756C653A
:1046FA002053657474696E677320004D6173746525
:10470A00722053657474696E6773200053797374E9
:10471A00656D2020202020202020202000606604B3
:10472A00AC436F6E6669672020202020202020205D
:10473A002000526563616C6C2020202020202020FC
:10474A0020200053746F7265202020202020202012
:10475A0020202000526563616C6C204D656D2E200F
:10476A00436172640053746F7265204D656D2E202B
:10477A004361726420004570726F6D2053747269D0
:10478A006E67202020200061ED002F4C696E654184
:10479A002054696D6572737472743F004C696E655A
:1047AA00422054696D6572737472743F004D696377
:1047BA002E2054696D6572737472743F20004C69BF
:1047CA006E65412053746172743F20202020004C92
:1047DA00696E65422053746172743F202020200064
:1047EA004D69632E2053746172743F20202020206B
:1047FA000053746172742062792046616465723F65
:10480A0020005374617274206279204F6E3F202019
:10481A002020005374617274206279204375653FC9
:10482A002020200050756C73202A2F436F6E74204D
:10483A004F20203F004C696E65412052656D2E2045
:10484A004375653F20004C696E65422052656D2EA6
:10485A00204375653F20004D69632E2052656D2EF9
:10486A00204375653F202000444A2E204D6F647511
:10487A006C653F202020202000416E6E2E204D6F57
:10488A0064756C653F202020200053747564696F3D
:10489A00204D6F64756C653F2020004C696E654140
:1048AA00204F6E204169722D313F20004C696E65A0
:1048BA0042204F6E204169722D313F20004D6963BD
:1048CA002E204F6E204169722D313F2020004C6905
:1048DA006E6541204F6E204169722D323F20004C97
:1048EA00696E6542204F6E204169722D323F200069
:1048FA004D69632E204F6E204169722D323F202070
:10490A00004F4E20617420506F7765722075703F9A
:10491A0020004D4943206174204C696E65413F2057
:10492A002020004D4943206174204C696E65423F46
:10493A00202020004D49432052656D2E204F6E3FA6
:10494A0020202020004C696E65412052656D2E2082
:10495A004F6E3F2020004C696E65422052656D2ED5
:10496A00204F6E3F20200053776974636820537488
:10497A006172743F202020006044022C4175746FDC
:10498A00204375652052657365743F200043554581
:10499A0020746F2043524D3F202020202000417573
:1049AA00746F20436F6D6D3F20202020202000452A
:1049BA006E61626C652052533233323F20202000F0
:054C8300901157EFF055
:104C8800E4A3F0901157E0FF75F01DA4248EF5827F
:104C9800E5F03402F583E06003024DEF75F01DEF97
:104CA800A42479F582E5F03402F583E0605E901182
:104CB80057E075F01DA42478F582E5F03402F583F9
:104CC800E06049EF75F008A42443F582E4340AF55E
:104CD80083E030E734901157E02447F582E4340448
:104CE800F583E030E52374DF2FF582E4340AF58399
:104CF800E07013125BC3901157E024DFF582E434AF
:104D08000AF5837401F0024DCE024DD6901157E09A
:104D1800FF75F01DA42479F582E5F03402F583E0EF
:104D2800604775F01DEFA42478F582E5F03402F5AC
:104D380083E07035901157E02447F582E43404F598
:104D480083E030E52274DF2FF582E4340AF583E04E
:104D58007013125BC3901157E024DFF582E4340A24
:104D6800F5837401F0805F8065901157E0FF75F05E
:104D78001DA42479F582E5F03402F583E0706875A6
:104D8800F01DEFA42478F582E5F03402F583E060A5
:104D980056901157E075F008A42443F582E4340ACC
:104DA800F583E030E72874DF2FF582E4340AF583D1
:104DB800E07013125BC3901157E024DFF582E434EE
:104DC8000AF5837401F09011587401F0801990115C
:104DD80057E0FFE4FD125BC9901157E024DFF5822C
:104DE800E4340AF583E4F0901157E0FF75F01DA450
:104DF800247AF582E5F03402F583E0604174472FA8
:104E0800F582E43404F583E030E214125BC39011B8
:104E180057E024DFF582E4340AF5837401F0229028
:104E28001158E07019901157E0FFE4FD125BC9902A
:0E4E38001157E024DFF582E4340AF583E4F03C
:014E46002249
:1062D600E4FDFBFA741C2BF58274023AF583E06444
:1062E600017026AE02EB7803C333CE33CED8F92441
:1062F60049F582740A3EF583E030E70D74322BF5DA
:1063060082740A3AF583E04DFD0BBB00010AEB648B
:10631600104A70C0900AC4E0FF04F074F12FF582B1
:10632600E4340BF58374D0F0900AC4E0FF04F074F3
:10633600F12FF582E4340BF5837402F0AF05900A71
:10634600C4E0FE04F074F12EF582E4340BF583EF1D
:01635600F056
:016357002223
:10646B007EFF7DFFE4FCECFB3395E0FAC3EB94106D
:10647B00EA64809480502DEDFB3395E0FAEBF470D9
:10648B0002EAF4701CECFB3395E0FA741C2BF582DA
:10649B0074023AF583E0640270070EECB50702ADA7
:0664AB00060C80C2AF05E3
:0164B10022C8
:1063D000E4FEEEC3941074809480503B74C52EF597
:1063E00082E4340AF583E054F7F075F01DEEA4243E
:1063F00072F582E5F03402F583E5822FF582E4350B
:1064000083F583E0600E74C52EF582E4340AF583CB
:0D641000E04408F00E80BB900ADE7401F03D
:01641D00225C
:1033F500E490113AF0C2AF438710F5FF900704F04F
:10340500A3F0901138F0901138E0C39410748094B3
:10341500805022E0FF2447F582E43404F5837410DC
:10342500F074C52FF582E4340AF583E4F090113881
:10343500E004F080D19004577440F01251CB75FC34
:10344500FFE4F5FDC2B4C2B5D2C7D295901176F0AE
:10345500901175F0901174F0901173F0901171F056
:10346500901170F090116FF090116EF0901138F08E
:10347500901138E0C3941074809480505DE0FF246F
:1034850021F582E4340AF583E4F074002FF582E433
:103495003400F583E4F0749C2FF582E43404F5835D
:1034A500E4F074242FF582E43405F583E4F0741414
:1034B5002FF582E43405F583E4F074DF2FF582E41B
:1034C500340AF583E4F074322FF582E4340AF58387
:1034D500E4F0901138E004F08096E4901172F090D9
:1034E500081FF0900AC2F0900512F0900AC4F090FF
:1034F5000513F090002EF090071DF0900AC304F01C
:10350500E4900EFAF0900CF1F0900EFCF0900CF2B5
:10351500F0900EFB04F0E4901100F0900EFEF09098
:10352500070BF01264F91243727BFF7A5479F07F2E
:103535000112537C7BFF7A557901E4FF12537C7BA2
:10354500FF7A5579037F0112537CE4900A31F0909C
:103555000820F0438710F5FFD2AFD2DA901136F08C
:10356500A3F07B017A02791C90115D7410F0E4FDE3
:10357500FC7FE0125F95901137E02410F090113632
:10358500E03400F0E4901138F0901138E0FFC39476
:103595001074809480503EEF75F01DA42472F97468
:1035A5000235F0FA7B01901136E0FCA3E0FD9011A5
:1035B5005D741DF07FE0125F95901137E0241DF0DA
:1035C500901136E03400F0438710E4F5FF90113890
:1035D500E004F080B4901136E0FCA3E0FD7B017AB5
:1035E50004794290115D7405F07FE0125F95C2AFDA
:1035F500C2DA12656512000EE4901138F0901138A8
:10360500E0C3941074809480503FE4A3F090113986
:10361500E0FFC39408748094805026901138E075BB
:10362500F008A42442F582E4340AF583E5822FF5F7
:1036350082E43583F5837401F0901139E004F0805C
:10364500CC901138E004F080B4E4901139F0901179
:1036550039E0FFC3940874809480501574D62FF513
:1036650082E4340AF5837401F0901139E004F080A6
:10367500DD7F0A7E00126538E4901138F09011382C
:10368500E0C39464748094805018E4FF124E477F21
:1036950001124E47438710E4F5FF901138E004F01E
:1036A50080DBE490071EF0900270F0901138F090E6
:1036B5001138E0FFC3941074809480400302374FA3
:1036C500E490113BF0EF75F008A42446F582E4344C
:1036D5000AF583E030E70690113B7402F09011384B
:1036E500E075F008A42447F582E4340AF583E03058
:1036F500E70790113BE04401F0901138E0FF241CEE
:10370500F582E43402F583E0FE90113BE0FDEE6DB9
:103715006029741C2FF582E43402F583EDF07BFFFC
:103725007A557901E4FF12537C7BFF7A5579147F32
:103735000112537C7F147E00126538438710E4F52F
:01374500FF84
:10374600901138E004F00236B490021C7401F0A324
:10375600F0A3F0A3F0A3F0A3F0A3F0A3F0A3F0A3CB
:10376600F0A3F0A3F0A3F0A3F0A3F0A3F09004421B
:10377600F0A3F0A3F0A3F0A3F0E4901138F09011B9
:1037860038E0C3941074809480400302386AE0FFE6
:103796002447F582E43404F583E4F075F01DEFA4C4
:1037A6002488F582E5F03402F583E0700302384A96
:1037B600901138E0FF2447F582E43404F583E044B1
:1037C60020F075F01DEFA42479F582E5F03402F5BA
:1037D60083E0601B901138E0FF75F01DA42478F596
:1037E60082E5F03402F583E070057D01125BC99035
:1037F6001138E0FF75F008A42443F582E4340AF595
:1038060083E030E73F75F01DEFA42479F582E5F0FB
:103816003402F583E0601A901138E075F01DA42497
:1038260078F582E5F03402F583E060057D01125BF0
:10383600C9901138E02447F582E43404F583E04466
:1038460001F08011901138E02447F582E43404F544
:1038560083E04410F0438710E4F5FF901138E0044C
:10386600F00237849004577440F0901138E0FFC39B
:103876009410748094805011125EB5438710E4F55D
:10388600FF901138E004F080E11249CB125A711210
:10389600591C1260661251CBE4901138F090113821
:1038A600E0FFC3941074809480502B741C2FF58213
:1038B600E43402F583E024FE600804700B900820CF
:1038C6008003900A31E004F0438710E4F5FF90117D
:1038D60038E004F080C77BFF7A557923E4FF125362
:1038E6007C7BFF7A5479F07F0112537C1257C27F9A
:1038F600327E00126538C290C291C292C293D294AF
:10390600E5C45443701B90044604F07BFF7A557956
:1039160001E4FF12537C7BFF7A5579257F01125310
:103926007C7F327E001265387BFF7A557923E4FF6F
:1039360012537C7BFF7A5579367F0112537C7BFFCD
:103946007A557901E4FF12537C90081FE075F01157
:10395600A42458F9740435F0FA7B017F0112537CD4
:10396600438710E4F5FFD2AFD2DAFDFC7FE00261B7
:013976001F31
:102BAA001233F5C290C291C292C293D294E5C45430
:062BBA003C6003022F74D1
:102BC00090110DF07BFF7A557923FF12537C7BFF28
:102BD0007A5579477F0112537C7BFF7A557901E45E
:102BE000FF12537C7BFF7A5579367F0112537C901C
:082BF000110DE06003022F74D7
:102BF800438710F5FFA3F090110EE0FFC394107403
:102C0800809480504974002FF582E43400F583E005
:102C1800603490110EE02400F582E43400F583E07E
:102C280014F074002FF582E43400F583E0701790F7
:102C3800110EE02447F582E43404F583E054FDF0F6
:102C4800900ADE7401F090110EE004F080A9900A59
:102C5800DEE06005E4F01251CB126594900270E05A
:0B2C6800FF90071EE06F7003022ED8E3
:102C7300900270E004F075F002EFA42421F582E5E0
:102C8300F03408F583E0FFA3E090110FCFF0A3EF3A
:102C9300F090110FE0FCA3E0FDEC5402FEE4780693
:102CA300CEC313CE13D8F9FFED54874F901111F013
:102CB30090110FE0FCA3E0FDAE047803CEC313CE66
:102CC30013D8F9540F901112F0EC20E0047F018027
:102CD300027F00901113EFF078147C117D017BFFCC
:102CE3007A55795A7E007F111250DB901113E06000
:102CF3000CA37420F0A3744FF0A3746EF090111220
:102D0300E02401FBE433FA7C007D0AAF03FE125199
:102D130050EF2430901122F07C007D0AAF03AE0205
:102D2300125150ED2430A3F0901111E01251A52D52
:102D330060002DCE012DDC022DEA032DF8062E06B0
:102D4300072E32802E40812E4E822E6A832E5C8483
:0D2D53002E78852E86862E948700002EC2D5
:102D600078257C117D017BFF7A55796B7E007F1180
:102D70001250DB7BFF7A557923E4FF12537C7B01F1
:102D80007A1179257F0112537C901112E0FF2447BC
:102D9000F582E43404F583E04402F074002FF582F8
:102DA000E43400F583740AF0901112E0FF2447F533
:102DB00082E43404F583E06408F074472FF582E47C
:0B2DC0003404F583E06401F01251CBF5
:032DCB00022EC213
:0C2DCE0078257C117D017BFF7A55797C13
:022DDA00803641
:0C2DDC0078257C117D017BFF7A55798DF4
:022DE800802841
:0C2DEA0078257C117D017BFF7A55799ED5
:022DF600801A41
:0C2DF80078257C117D017BFF7A5579AFB6
:022E0400800C40
:102E060078257C117D017BFF7A5579C07E007F1184
:102E16001250DB7BFF7A557923E4FF12537C7B014A
:092E26007A1179257F0112537C19
:032E2F00022EC2AE
:0C2E320078257C117D017BFF7A5579D159
:022E3E008060B2
:0C2E400078257C117D017BFF7A5579E23A
:022E4C008052B2
:0C2E4E0078257C117D017BFF7A5579F31B
:022E5A008044B2
:0C2E5C0078257C117D017BFF7A567904FB
:022E68008036B2
:0C2E6A0078257C117D017BFF7A567915DC
:022E76008028B2
:0C2E780078257C117D017BFF7A567926BD
:022E8400801AB2
:0C2E860078257C117D017BFF7A5679379E
:022E9200800CB2
:102E940078257C117D017BFF7A5679487E007F116D
:102EA4001250DB7BFF7A557923E4FF12537C7B01BC
:0E2EB4007A1179257F0112537CE4901117F0FA
:102EC2007BFF7A557901E4FF12537C7B017A1179F9
:062ED200147F0112537C85
:102ED800C290C291C292C293D294E5C45443600393
:102EE800022BEF90110D04F07BFF7A557923E4FF54
:102EF80012537C7BFF7A5579367F0112537C7BFF16
:102F08007A557901E4FF12537C7BFF7A5579367F35
:102F18000112537CE490110EF090110EE0C394104E
:102F2800748094804003022BEFE0FF2447F582E48D
:102F38003404F583E054FDF074002FF582E4340086
:102F4800F583E4F090110EE0FF2447F582E43404A1
:102F5800F583E054F7F074472FF582E43404F583E1
:0C2F6800E054FBF090110EE004F080AD8E
:102F7400901171E0FD75F00A842430901104F0ED95
:102F840075F00A84E5F02430A3F0A3743AF09011AC
:102F940070E0FD75F00A842430901107F0ED75F0AF
:102FA4000A84E5F02430A3F0A3743AF090116FE0A2
:102FB400FD75F00A84243090110AF0ED75F00A844E
:102FC400E5F02430A3F07BFF7A557958E4FF1253DF
:102FD4007CE490110CF07B017A1179047F01125387
:012FE4007C70
:102FE500E490110EF090110EE0FFC39410748094DC
:102FF5008040030230E3741C2FF582E43402F5832C
:10300500E0FF64016008EF640260030230AA900AE1
:10301500C4E0FF04F074F12FF582E4340BF58374FA
:1030250093F090110EE0FF900AC4E0FE04F074F1F5
:103035002EF582E4340BF583EFF0E490110DF0905A
:10304500110DE0C3941D748094805059E0FFA3E0F6
:10305500FE75F01DA42472F582E5F03402F583E5D2
:10306500822FF582E43583F583E05401F075F01D78
:10307500EEA42472F582E5F03402F583E5822FF59E
:1030850082E43583F583E0547FFF900AC4E0FE04B3
:10309500F074F12EF582E4340BF583EFF090110D09
:1030A500E004F0809A900513E0FF900AC4E06F6099
:1030B5001E900AC3E06018900513E004F074F12F28
:1030C500F582E4340BF583E0F599E4900AC3F090BA
:1030D5000AC3E060FA90110EE004F0022FEA900AAC
:1030E500C4E0FF04F074F12FF582E4340BF583742A
:1030F50094F0900AC4E0FF04F074F12FF582E434F3
:103105000BF583E4F090110DF090110DE0FFC394E1
:103115000574809480502974422FF582E43404F5B7
:1031250083E0547FFF900AC4E0FE04F074F12EF5AD
:1031350082E4340BF583EFF090110DE004F080C9C3
:10314500E490110DF090110DE0FFC394107480947C
:103155008040030232D474002FF582E43400F583F5
:10316500E0603490110DE02400F582E43400F5832D
:10317500E014F074002FF582E43400F583E0701755
:1031850090110DE02447F582E43404F583E054FD05
:10319500F0900ADE7401F090110DE0FF249CF58299
:1031A500E43404F583E0603290110DE0FE249CF5D3
:1031B50082E43404F583E014F0749C2EF582E43443
:1031C50004F583E0701474472FF582E43404F58325
:1031D500E054FDF0900ADE7401F090110DE0FF243B
:1031E50024F582E43405F583E0603590110DE0FEA9
:1031F5002424F582E43405F583E014F074242EF5D7
:1032050082E43405F583E0701774472FF582E434C2
:1032150004F583E04404F0126066900ADE7401F060
:1032250090110DE0FF2414F582E43405F583E07078
:10323500030232CB90110DE0FE2414F582E434052F
:10324500F583E014F074142EF582E43405F583E07B
:02325500707493
:1032570012646B90110EEFF090110DE02447F58288
:10326700E43404F583E054EFF0EF3395E0FEC364F4
:103277008094804049EF9404EE64809480503F909E
:103287000AC4E0FF04F074F12FF582E4340BF583F0
:1032970074C3F090110EE0FF900AC4E0FE04F074CE
:1032A700F12EF582E4340BF583EFF0900AC4E0FFCA
:1032B70004F074F12FF582E4340BF583E4F0900AFF
:0432C700DE7401F0C0
:1032CB0090110DE004F002314A900ADEE06005E453
:1032DB00F01251CB901174E0FF90116FE06F607C96
:1032EB00900704E07076901171E0FD75F00A84246C
:1032FB0030901104F0ED75F00A84E5F02430A3F062
:10330B00A3743AF0901170E0FD75F00A84243090AC
:10331B001107F0ED75F00A84E5F02430A3F0A374E7
:10332B003AF090116FE0FD75F00A84243090110A89
:10333B00F0ED75F00A84E5F02430A3F0E4A3F07B04
:10334B00FF7A557958FF12537C7B017A1179047FF0
:10335B000112537C90116FE0901174F0438710E4CD
:10336B00F5FF126594900270E0FF90071EE06F600E
:10337B001D900270E004F075F002EFA42421F58299
:10338B00E5F03408F583E0FEA3E0FF12002E900475
:10339B0045E06042900512E0FF900AC2E06F6003C7
:1033AB00123E83900513E0FF900AC4E06F70030296
:1033BB003145900AC3E07003023145900513E004D8
:1033CB00F074F12FF582E4340BF583E0F599E4907A
:1033DB000AC3F0023145E4900513F0900AC4F09053
:0733EB000512F0900AC2F088
:0333F20002314560
:10606600E4FD900457E054FDF0E4FCECC394107496
:10607600809480502874472CF582E43404F583E03C
:1060860030E217741C2CF582E43402F583E0FB64DD
:10609600016005EB640270027D010C80CE9007055D
:1060A600E060027D01ED600D900443E0600790041E
:1060B60057E04402F0900457E054F7F0E4FCECC3D8
:1060C600941074809480504774472CF582E434040D
:1060D600F583E0FF30E335EC75F008A42449F5823A
:1060E600E4340AF583E030E72375F01DECA4248040
:1060F600F582E5F03402F583E06011EF30E40D90AF
:106106000444E06007900457E04408F00C80AF12A6
:08611600641E900ADE7401F022
:01611E00225E
:10641E00E4FFFEEEFD3395E0FCC3ED9410EC6480DA
:10642E0094805027EE3395E0FC741C2DF582740297
:10643E003CF583E06402701074472DF58274043CC1
:10644E00F583E030E2027F010E80C8900457E02011
:0C645E00E303EF6004E4F5FC2275FCFF92
:01646A00220F
:10591C00E4FD900457E054FBF0E4FFEFC3941074E3
:10592C0080948040030259E375F01DEFA42481F5A7
:10593C0082E5F03402F583E0701575F01DEFA424B8
:10594C0080F582E5F03402F583E070030259DF74D0
:10595C001C2FF582E43402F583E0FB64016005EB57
:10596C006402706FEF75F008A42449F582E4340AE0
:10597C00F583E020E73BEF75F008A42448F582E4BA
:10598C00340AF583E0FE20E71275F01DEFA424899C
:10599C00F582E5F03402F583E07016EE30E73475ED
:1059AC00F01DEFA4248AF582E5F03402F583E06063
:1059BC0022EF75F008A42443F582E4340AF583E061
:1059CC0030E71074472FF582E43404F583E030E5BA
:1059DC00027D010F025927ED6007900457E0440443
:1059EC00F0900457E0900AC430E23BE0FF04F074FE
:1059FC00F12FF582E4340BF58374D0F0900AC4E0F7
:105A0C00FF04F074F12FF582E4340BF5837401F08C
:105A1C00900AC4E0FF04F074F12FF582E4340BF526
:105A2C00837401F08038E0FF04F074F12FF582E408
:105A3C00340BF58374D0F0900AC4E0FF04F074F1D9
:105A4C002FF582E4340BF5837401F0900AC4E0FF67
:105A5C0004F074F12FF582E4340BF583E4F0900A32
:045A6C00DE7401F0F3
:015A70002213
:105A7100E4FD900457E054FEF0E4FFEFC39410748A
:105A81008094804003025B3775F01DEFA4247FF5FD
:105A910082E5F03402F583E07003025B33741C2F5E
:105AA100F582E43402F583E0FB64016008EB6402F3
:105AB1006003025B33EF75F008A42449F582E434F6
:105AC1000AF583E020E73BEF75F008A42448F5824E
:105AD100E4340AF583E0FE20E71275F01DEFA424FB
:105AE10089F582E5F03402F583E07016EE30E74285
:105AF10075F01DEFA4248AF582E5F03402F583E008
:105B01006030EF75F008A42443F582E4340AF5838C
:105B1100E030E70E74472FF582E43404F583E0208A
:105B2100E50E74472FF582E43404F583E030E20298
:105B31007D010F025A7CED6007900457E04401F0AB
:105B4100900457E0900AC430E03AE0FF04F074F1A9
:105B51002FF582E4340BF58374D0F0900AC4E0FF92
:105B610004F074F12FF582E4340BF583E4F0900A2C
:105B7100C4E0FF04F074F12FF582E4340BF5837473
:105B810001F08037E0FF04F074F12FF582E4340B6B
:105B9100F58374D0F0900AC4E0FF04F074F12FF59E
:105BA10082E4340BF583E4F0900AC4E0FF04F0745E
:105BB100F12FF582E4340BF583E4F0900ADE7401F1
:015BC100F0F3
:015BC20022C0
:1049CB00E4F9FEFDEDC39410748094804003024B18
:1049DB006D741C2DF582E43402F583E0FB640160F9
:1049EB0008EB64026003024B69ED75F008A42449DF
:1049FB00F582E4340AF583E030E77475F01DEDA41D
:104A0B002484F582E5F03402F583E06022ED75F045
:104A1B0008A42443F582E4340AF583E030E71074EC
:104A2B00472DF582E43404F583E030E50279017516
:104A3B00F01DEDA42487F582E5F03402F583E070D8
:104A4B0003024B69ED75F008A42443F582E4340AA4
:104A5B00F583E020E703024B6974472DF582E434BC
:104A6B0004F583E020E503024B697E01024B69EDFF
:104A7B0075F008A42448F582E4340AF583E0FC20A1
:104A8B00E77075F01DEDA42482F582E5F03402F594
:104A9B0083E06022ED75F008A42443F582E4340A28
:104AAB00F583E030E71074472DF582E43404F58389
:104ABB00E030E502790175F01DEDA42485F582E562
:104ACB00F03402F583E07003024B69ED75F008A436
:104ADB002443F582E4340AF583E020E703024B69B3
:104AEB0074472DF582E43404F583E030E5707E01E4
:104AFB00806CEC30E76875F01DEDA42483F582E53E
:104B0B00F03402F583E06022ED75F008A42443F540
:104B1B0082E4340AF583E030E71074472DF582E424
:104B2B003404F583E030E502790175F01DEDA42422
:104B3B0086F582E5F03402F583E06022ED75F0082E
:104B4B00A42443F582E4340AF583E030E71074477C
:104B5B002DF582E43404F583E030E5027E010D028D
:104B6B0049CF900457E054DFF054EFF0E96004E0D4
:104B7B004420F0EE6007900457E04410F090045787
:104B8B00E0FF900AC430E53AE0FE04F074F12EF534
:104B9B0082E4340BF5837484F0900AC4E0FE04F0D5
:104BAB0074F12EF582E4340BF583E4F0900AC4E043
:104BBB00FE04F074F12EF582E4340BF5837401F0EE
:104BCB008037E0FE04F074F12EF582E4340BF583AC
:104BDB007484F0900AC4E0FE04F074F12EF582E4C4
:104BEB00340BF583E4F0900AC4E0FE04F074F12E6C
:104BFB00F582E4340BF583E4F0EF900AC430E43A29
:104C0B00E0FF04F074F12FF582E4340BF583748527
:104C1B00F0900AC4E0FF04F074F12FF582E4340B3A
:104C2B00F583E4F0900AC4E0FF04F074F12FF582F1
:104C3B00E4340BF5837401F08037E0FF04F074F17A
:104C4B002FF582E4340BF5837485F0900AC4E0FFF2
:104C5B0004F074F12FF582E4340BF583E4F0900A41
:104C6B00C4E0FF04F074F12FF582E4340BF583E418
:074C7B00F0900ADE7401F065
:014C8200220F
:065BC300901157E07D0186
:105BC900E4901159F074472FF582E43404F583E029
:105BD90054FDF0ED6071EF75F008A42449F582E4F5
:105BE900340AF583E030E71475F01DEFA42477F546
:105BF90082E5F03402F583E0604D803DEF75F008F1
:105C0900A42448F582E4340AF583E0FE20E71475FC
:105C1900F01DEFA42475F582E5F03402F583E06008
:105C2900268016EE30E72075F01DEFA42476F58264
:105C3900E5F03402F583E0600E74472FF582E43411
:105C490004F583E04402F074002FF582E43400F592
:105C590083E4F074472FF582E43404F583E030E1FE
:105C69001F75F01DEFA4247BF582E5F03402F5835E
:105C7900E0600D74002FF582E43400F583740AF0B6
:105C890074472FF582E43404F583E0900AC430E1C7
:105C990012E0FE04F074F12EF582E4340BF58374FE
:105CA900828010E0FE04F074F12EF582E4340BF5E5
:105CB900837483F0900AC4E0FE04F074F12EF58237
:105CC900E4340BF583EFF0900AC4E0FF04F074F1BB
:105CD9002FF582E4340BF5837401F0900ADE740128
:015CE900F0CA
:015CEA002297
:1064B2007EFF7DFFE4FCECFB3395E0FAC3EB941026
:1064C200EA64809480502DEDFB3395E0FAEBF47092
:1064D20002EAF4701CECFB3395E0FA741C2BF58293
:1064E20074023AF583E0640270010EEEB50702AD64
:0664F200040C80C2AF059E
:0164F8002281
:105EB500E4FEEF75F008A42449F582E4340AF5837D
:105EC500E030E71575F01DEFA42474F582E5F03494
:105ED50002F583E060440E8041EF75F008A4244884
:105EE500F582E4340AF583E0FD20E71675F01DEF31
:105EF500A42472F582E5F03402F583E0601C7E018E
:105F05008018ED30E71475F01DEFA42473F582E5D4
:105F1500F03402F583E060027E01EE6040EF75F03B
:105F250008A42443F582E4340AF583E030E72E74AF
:105F3500472FF582E43404F583E030E520E4901141
:105F450071F0901170F090116FF090116EF0742156
:105F55002FF582E4340AF5837401F0800C74212F47
:105F6500F582E4340AF583E4F0E4901172F0FFEF72
:105F7500C3941074809480501674212FF582E434F4
:0F5F85000AF583E060069011727401F00F80E05E
:015F940022EA
:1051CB00E4FDEDC3940874809480503B7E007480A2
:1051DB00A805088006CEA2E713CE13D8F8FF9004DB
:1051EB0057E0FBEF5B24FF92B2D2B4E4900271F074
:1051FB00900271E0C39405748094805005E004F034
:10520B0080EEC2B40D80BBE4FBEBC39408748094B6
:10521B00804003025345E4FDEDC3940674809480F3
:10522B004003025341900704E064017076FE04A82A
:10523B0005088005C333CE33CED8F930E365EBFFD9
:10524B00C374079FFFE49400FE74C52FF582740AA4
:10525B003EF583E0F5827583007E007401A8050896
:10526B008005C333CE33CED8F9FFEE5583FEEF5511
:10527B00824E24FF92B2EBFFC3740F9FFFE49400A6
:10528B00FE74C52FF582740A3EF583E0F5827583B3
:10529B00007E007401A805088005C333CE33CED839
:1052AB00F98063EBFFC374079FFFE49400FE744720
:1052BB002FF58274043EF583E0F5827583007E0042
:1052CB007401A805088005C333CE33CED8F9FFEEA1
:1052DB005583FEEF55824E24FF92B2EBFFC3740F42
:1052EB009FFFE49400FE74472FF58274043EF58310
:1052FB00E0F5827583007E007401A805088005C364
:10530B0033CE33CED8F9FFEE5583FEEF55824E24C4
:10531B00FF92B3D2B4D2B5E4900271F0900271E077
:10532B00C39405748094805005E004F080EEC2B401
:10533B00C2B50D0252230B025214C2C7E490027184
:10534B00F0900271E0C39405748094805005E004E2
:10535B00F080EED2C7C295E4900271F0900271E03A
:10536B00C39405748094805005E004F080EED295D0
:01537B00220F
:106538007D017C00D3ED9FEE6480F8EC6480985078
:106548001BE4FBFA438710E4F5FF0BBB00010ABA12
:0C65580003F2BBE9EF0DBD00010C80D880
:016564002214
:10658100C0004E6F20454550524F4D20636F6D6DD9
:036591002E2000B9
:1064F900E4900EFAF0900CF1F0900EFCF0900CF292
:10650900F0900EFB04F0E4901100F0900EFEF09074
:10651900070BF075DBFFD296D297C2DBC2DAD2DF66
:0F652900D2D9C2D8D2DEC2DDC2DCD2ADD2BD2201
:06611F00901160EFF0FB9F
:10612500AE04ED7807CEC313CE13D8F9540E4BFF4A
:10613500E4900EFCF0900CF2F0900EFB04F0E4906D
:106145000EFEF090070BF0900EFCE024F6F582E4CD
:10615500340DF583EFF0AF05900EFCE0FE04F0740E
:10616500002EF582E4340FF583EFF0C2AF900EFCFC
:10617500E0600C900EFBE06006E4F0D2AFC2DDD229
:10618500AF900EFBE060FA7F017E00126538900E3D
:10619500FEE060297BFF7A657981E4FF12537C90EC
:1061A5001160E064A0700690070BF0800B7BFF7A0E
:0D61B5006579837F0112537CE4900EFEF0AB
:0161C20022BA
:105F9500901157EFF090115AEBF0A3EAF0A3E9F056
:105FA500AE04ED7807CEC313CE13D8F9540EFE9088
:105FB5001157E0FF4E440190115EF0E4900EFAF0A7
:105FC500900CF1F0900EFCF0900EFB04F0E49011B3
:105FD50000F012611F9011007401F090115DE090C6
:105FE5000DF5F090115EE0FF900EFCE0FE04F074FC
:105FF500F62EF582E4340DF583EFF0C2AF900EFB7B
:10600500E06006E4F0D2AFD2DDD2AF900EFBE060E7
:10601500FAE4901100F0FF900CF1E0FE900EFAE02A
:036025006E603D6D
:10602800900CF1E004F074002EF582E43410F5834E
:10603800E090115FF090115DE0FEEFC39E50D590A7
:10604800115FE0FE90115AE0FBA3E0FAA3E0F9AD7E
:0B605800070F8D82758300EE12512EA1
:0260630080B704
:016065002218
:10565900901157EFF0A3ECF0A3EDF0A3EBF0A3EA60
:04566900F0A3E9F0D1
:10566D00E490115EF0901158E0FEA3E07807CEC3F0
:10567D0013CE13D8F9540EFF901157E04F90115FD0
:10568D00F090115DE0FFA3E0FEC39F40030257C100
:10569D00438710E4F5FFA3E0FF900EFCE024F6F540
:1056AD0082E4340DF583EFF0901158A3E0FD900ED8
:1056BD00FCE0FC04F074002CF582E4340FF583ED6E
:1056CD00F0900EFCE024F6F582E4340DF583EFF056
:1056DD0090115AE0FBA3E0FAA3E0F98E82758300E6
:1056ED00125101FF900EFCE0FE04F074002EF582C5
:1056FD00E4340FF583EFF0901159E004F0706590EC
:10570D001158E004F0805D90115DE0FFA3E0FEC351
:10571D009F5059901159E0540F605190115FE0FF67
:10572D00900EFCE024F6F582E4340DF583EFF09055
:10573D00115AE0FBA3E0FAA3E0F98E827583001203
:10574D005101FF900EFCE0FE04F074002EF582E492
:10575D00340FF583EFF0901159E004F070069011BD
:10576D0058E004F090115EE004F0809BC2AF900C05
:10577D00F2E0FF900EFCE06F600C900EFBE0600617
:10578D00E4F0D2AFD2DDD2AF900EFBE060FA901113
:10579D0058E0FEA3E07807CEC313CE13D8F9540E0C
:1057AD00FF901157E04F90115FF07F017E00126561
:0457BD003802568ECA
:0157C10022C5
:03002B0002397720
:0B397700C0E0C083C082C0D075D01833
:10398200AFD9AEDA900EFAE4F0900EFCF0900CF2A1
:10399200F0900EFB04F0901100E4F0900EFEF09017
:1039A2000EFDEFF01251A53E6E0039FB083A4210AF
:1039B2003A73183AA2203AF9283B47303B8C383BFD
:1039C200D1403BF1483BF8503C27583C85603C874E
:1039D200683C89703C8B783C9D803E66883D7B903C
:1039E2003E66983E66A03E5AA83E5EB03E62B83E33
:1039F20066C03E66C800003E78900CF2E0FF900E72
:103A0200FCE06F601D74F62FF582E4340DF583E05F
:103A1200900EF9F0F5DA901100E06006900CF2E0F9
:103A220004F0C2DC900EF9E0FF901101E06F700328
:103A3200023E78900EF6E4F0901101EFF0023E782B
:103A4200C2DC900CF2E024F6F582E4340DF583E05A
:103A5200FF900EF9F0F5DA901101E06F7003023E6B
:103A620078900EF6E4F0900EF9E0901101F0023E2B
:103A720078900CF2E0FF900EFCE06F6014C2DDC2A1
:103A8200DC74002FF582E4340FF583E0F5DA023BB3
:103A92003FC2DDD2DCD2DA900EFB7401F0023B3F72
:103AA200900EF6E004F0E0D3940A74809480403ED5
:103AB200C2DDD2DCD2DA900EFB7401F0900EFEF081
:103AC200900EFCE0FF900CF2E0FD6F7003023E7876
:103AD20074F62DF582E4340DF583E0FF901101E0D8
:103AE2006F6003023E78900CF2E004F080D2D2DDE7
:103AF200C2DCD2DA023E78900CF2E004F0E0FF90F1
:103B02000EFCE06F602B74F62FF582E4340DF58322
:103B1200E0FF900EF9E0FDEFB51D16C2DDC2DC90AC
:103B22000CF2E02400F582E4340FF583E0F5DA804C
:103B32000CC2DDD2DCD2DA900EFB7401F0900EF6EC
:103B4200E4F0023E78D2DDC2DC900EF6E004F0E052
:103B5200D3940A748094805003023E78900EFCE065
:103B6200FF900CF2E0FD6F7003023E7874F62DF5C3
:103B720082E4340DF583E0FF901101E06F600302EF
:103B82003E78900CF2E004F080D2D2DDC2DC900EDE
:103B9200F6E004F0E0D3940A748094805003023E6D
:103BA20078900EFCE0FF900CF2E0FD6F7003023E95
:103BB2007874F62DF582E4340DF583E0FF9011015F
:103BC200E06F6003023E78900CF2E004F080D2C213
:103BD200DDC2DC900CF3E4F0900DF5E0C3940274C6
:103BE2008094805005C2DA023E78D2DA023E78C270
:103BF200DDD2DC023E6A900CF3E0FF04F074F42F95
:103C0200F582E4340CF583EEF0C2DDC2DC900DF5F2
:103C1200E014FF900CF3E0D39F4005C2DA023E7835
:053C2200D2DA023E7839
:103C2700901102E4F0900CF3E0FF901102E0FDC365
:103C37009F502774F42DF582E4340CF583E0FF9050
:103C47000EFAE0FD04F074002DF582E43410F583DC
:103C5700EFF0901102E004F080CB900EFAE0FF0441
:103C6700F074002FF582E43410F583EEF0900CF336
:0B3C7700E4F0C2DDD2DC900EFB04F094
:103C8200023E78800480028000C2DCD2DA900EFB11
:103C92007401F0900CF3E4F0023E78900CF3E0141F
:103CA200600C14601624027020900DF48010900EA7
:103CB200FFEEF0FF900EF774038004900EF8EEF022
:103CC200900CF3E004F0023D76900CF3E0FF04F078
:103CD20074F42FF582E4340CF583EEF0900EF7E0E5
:0C3CE200FF900CF3E0D39F5003023D76EE
:103CEE009011027403F0900DF4E0FF900EFAE0FDD7
:103CFE0004F074002DF582E43410F583EFF0900E8D
:103D0E00FFE0FF900EFAE0FD04F074002DF582E462
:103D1E003410F583EFF0900EF8E0FF900EFAE0FD10
:103D2E0004F074002DF582E43410F583EFF0900C5E
:103D3E00F3E0FF901102E0FDC39F502774F42DF5C0
:103D4E0082E4340CF583E0FF900EFAE0FD04F0748B
:103D5E00002DF582E43410F583EFF0901102E004AB
:083D6E00F080CB900CF3E4F0AF
:103D7600C2DC023E6A900CF3E014600C1460162458
:103D8600027020900DF48010900EFFEEF0FF900E62
:103D9600F774038004900EF8EEF0900CF3E004F054
:103DA600023E56AF1E900CF3E0FE04F074F42EF5BE
:103DB60082E4340CF583EFF0900EF7E0FF900CF3FD
:083DC600E0D39F5003023E51BF
:103DCE009011027403F0900DF4E0FF900EFAE0FEF5
:103DDE0004F074002EF582E43410F583EFF0900EAB
:103DEE00FFE0FF900EFAE0FE04F074002EF582E480
:103DFE003410F583EFF0900EF8E0FF900EFAE0FE2F
:103E0E0004F074002EF582E43410F583EFF0900C7C
:103E1E00F3E0FF901102E0FEC39F502774F42EF5DD
:103E2E0082E4340CF583E0FF900EFAE0FE04F074A9
:103E3E00002EF582E43410F583EFF0901102E004C9
:033E4E00F080CB36
:103E5100900CF3E4F0C2DC8010C2DC800CC2DC8088
:103E610008C2DC8004C2DDC2DCD2DA8004C2DDD249
:093E7100DC900EFB7401F0C2DBD1
:093E7A00D0D0D082D083D0E03218
:10437200901157740FF0FF7E00126538C2C6C2C595
:10438200C2C4C2C3C2C2D2C1D2C0D2C6E4900271F8
:10439200F0900271E0C3941E748094805005E00492
:1043A200F080EEC2C67F017E00126538C2C5C2C46B
:1043B200C2C3C2C2D2C1D2C0D2C6E4900271F090CE
:1043C2000271E0C3941E748094805005E004F08072
:1043D200EEC2C67F017E00126538C2C5C2C4C2C326
:1043E200C2C2D2C1D2C0D2C6E4900271F0900271B0
:1043F200E0C3941E748094805005E004F080EEC205
:10440200C67F017E00126538C2C5C2C4C2C3C2C221
:10441200D2C1C2C0D2C6E4900271F0900271E0C370
:10442200941E748094805005E004F080EEC2C67F32
:10443200017E00126538C2C5C2C4C2C3C2C2D2C1A3
:10444200C2C0D2C6E4900271F0900271E0C3941E21
:10445200748094805005E004F080EEC2C6C2C5C2EA
:10446200C4D2C3C2C2C2C1C2C0D2C6E4900271F0F9
:10447200900271E0C3941E748094805005E004F0B1
:1044820080EEC2C6901157740FF0D2C3C2C5D2C417
:10449200D2C6E4900271F0900271E0C3941E74805F
:1044A20094805005E004F080EEC2C6D2C630C32725
:1044B200901157E0FF14F0EF601DC2C6E490027144
:1044C200F0900271E0C3941E748094805005E00461
:1044D200F080EED2C680D6C2C6C2C5C2C4C2C3C2B2
:1044E200C2C2C1C2C0D2C6E4900271F0900271E0B1
:1044F200C3941E748094805005E004F080EEC2C61E
:10450200C2C5C2C4D2C3D2C2C2C1C2C0D2C6E49062
:104512000271F0900271E0C3941E74809480500581
:10452200E004F080EEC2C6901157740FF0D2C3C2FD
:10453200C5D2C4D2C6E4900271F0900271E0C39475
:104542001E748094805005E004F080EEC2C6D2C68C
:1045520030C327901157E0FF14F0EF601DC2C6E48C
:10456200900271F0900271E0C3941E7480948050A6
:1045720005E004F080EED2C680D6C2C6C2C5C2C46F
:10458200C2C3C2C2C2C1C2C0D2C6E4900271F0901C
:104592000271E0C3941E748094805005E004F080A0
:1045A200EEC2C6C2C5C2C4C2C3C2C2C2C1D2C0D296
:1045B200C6E4900271F0900271E0C3941E7480947C
:1045C200805005E004F080EEC2C6901157740FF0DF
:1045D200D2C3C2C5D2C4D2C6E4900271F0900271B5
:1045E200E0C3941E748094805005E004F080EEC213
:1045F200C6D2C630C327901157E0FF14F0EF601DFA
:10460200C2C6E4900271F0900271E0C3941E7480FD
:1046120094805005E004F080EED2C680D6C2C6C2B5
:10462200C5C2C4C2C3C2C2C2C1C2C0D2C6E4900221
:1046320071F0900271E0C3941E748094805005E082
:1046420004F080EEC2C6C2C5C2C4C2C3D2C2D2C1C5
:10465200C2C0D2C6E4900271F0900271E0C3941E0F
:10466200748094805005E004F080EEC2C690115729
:10467200740FF0D2C3C2C5D2C4D2C630C3279011C0
:1046820057E0FF14F0EF601DC2C6E4900271F09093
:104692000271E0C3941E748094805005E004F0809F
:0746A200EED2C680D6C2C6AD
:0146A90022EE
:0E537C00901168EFF0A3EBF0A3EAF0A3E9F0C4
:10538A00A3740FF0E4FFC2C6900271F0900271E0BC
:10539A00C3941E748094805005E004F080EE90114E
:1053AA0069E0FBA3E0FAA3E0F98F8275830012514A
:1053BA0001FEFD3395E04D70030254EF901168E051
:1053CA0024FF92C5C2C4EE3392C3EEA2E692C2A2F1
:1053DA00E592C1A2E492C0D2C6E4900271F09002B2
:1053EA0071E0C3941E748094805005E004F080EE4E
:1053FA00C2C690116C740FF0D2C3C2C5D2C4D2C651
:10540A00E4900271F0900271E0C3941E748094805B
:10541A005005E004F080EEC2C6D2C630C327901110
:10542A006CE0FE14F0EE601DC2C6E4900271F090CA
:10543A000271E0C3941E748094805005E004F080E9
:10544A00EED2C680D6C2C6901168E024FF92C5C2C9
:10545A00C4A3E0FBA3E0FAA3E0F98F8275830012EC
:10546A005101A2E392C3A2E292C2A2E192C11392B3
:10547A00C0D2C6E4900271F0900271E0C3941E7427
:10548A008094805005E004F080EEC2C690116C74DE
:10549A000FF0D2C3C2C5D2C4D2C6E4900271F09052
:1054AA000271E0C3941E748094805005E004F08079
:1054BA00EEC2C6D2C630C32790116CE0FE14F0EEDD
:1054CA00601DC2C6E4900271F0900271E0C3941E9E
:1054DA00748094805005E004F080EED2C680D6C273
:0554EA00C60F0253A8EB
:0154EF00229A
:02000300C0003B
:0D659400125CEBE4FF124E477F01024E4700
:105CEB00C290C291C292C293D294E4900271F0908E
:105CFB000271E0C39402748094805005E004F0803C
:105D0B00EEE4FDEDC39408748094804003025DCFF4
:105D1B00901136E5C4F07E007401A805088005C318
:105D2B0033CE33CED8F9FF901136E0FCFBEF5B702E
:105D3B003B74D62DF582E4340AF583E020E72D740D
:105D4B00D62DF582E4340AF583E014F030E771EDDB
:105D5B004480FF90071EE0FB04F075F002EBA424D7
:105D6B0021F582E5F03408F583E480507E00740160
:105D7B00A805088005C333CE33CED8F9FFECFBEF73
:105D8B005B603D74D62DF582E4340AF583E030E791
:105D9B002F74D62DF582E4340AF5837401F0EDFFF0
:105DAB00EF4480FF90071EE0FC04F075F002ECA4BA
:105DBB002421F582E5F03408F5837401F0A3EFF0AC
:045DCB000D025D0E5A
:015DCF0022B1
:054E470090113CEFF0AA
:104E4C0024FF9293C294E4A3F090113DE0C3940824
:104E5C0074809480400302500AE4A3F090113EE069
:104E6C00C3940874809480400302500190113DE07B
:104E7C00FF139290EFA2E19291A2E29292E490023F
:104E8C0071F0900271E0C39402748094805005E03C
:104E9C0004F080EE90113FE5C4F090113EE0FD7EF1
:104EAC00007401A805088005C333CE33CED8F9FFB2
:104EBC0090113FE0FBEF5B707A90113CE075F008CD
:104ECC00A42DFF75F008A42442F582E4340AF5837E
:104EDC00C083C08290113DE0FED082D0832582F544
:104EEC0082E43583F583E020E749EF75F008A424CC
:104EFC0042F582E4340AF583E5822EF582E43583AB
:104F0C00F583E014F020E703024FF890113CE075B4
:104F1C00F008A4FF90113EE07C002FFFEC35F0FE72
:104F2C00EF7803C333CE33CED8F9FF90113DE0FDBB
:104F3C00024FDA90113EE0FD7E007401A805088056
:104F4C0005C333CE33CED8F9FF90113FE0FBEF5BB6
:104F5C007003024FF890113CE0FF75F008A42DFE91
:104F6C0075F008A42442F582E4340AF583C083C0AA
:104F7C008290113DE0D082D0832582F582E4358386
:104F8C00F583E030E766EE75F008A42442F582E480
:104F9C00340AF583C083C08290113DE0FDD082D0ED
:104FAC00832582F582E43583F5837401F0EF75F087
:104FBC0008A4FF90113EE07A002FFFEA35F0FEEFD7
:104FCC007803C333CE33CED8F9FFEE4401FEEF4D58
:104FDC00FF90071EE0FD04F075F002EDA42421F50E
:104FEC0082E5F03408F583EEF0A3EFF090113EE08B
:0E4FFC0004F0024E6890113DE004F0024E55A4
:01500A002283
:1057C200E4FF0F2457F582E43411F5837453F00F8C
:1057D20074572401F582E43411F5837474F00F7464
:1057E200572402F582E43411F583744DF00F745797
:1057F2002403F582E43411F583746FF00F74572497
:1058020004F582E43411F5837464F00F74572405AF
:10581200F582E43411F583743AF0900820E075F0D3
:105822000A8460112430FE0F74572406F582E43492
:1058320011F583EEF0900820E075F00A84E5F0247B
:1058420030FEAD070F74572DF582E43411F583EE67
:10585200F0AE070F74572EF582E43411F5837420ED
:10586200F0AE070F74572EF582E43411F5837454A9
:10587200F0AE070F74572EF582E43411F583746588
:10588200F0AE070F74572EF582E43411F583746C71
:10589200F0AE070F74572EF582E43411F58374636A
:1058A200F0AE070F74572EF582E43411F583746F4E
:1058B200F0AE070F74572EF582E43411F583743A73
:1058C200F0900A31E075F00A8460122430FEAD07D0
:1058D2000F74572DF582E43411F583EEF0900A31FE
:1058E200E075F00A84E5F02430FEAD070F74572D01
:1058F200F582E43411F583EEF074572FF582E43427
:1059020011F583E4F07BFF7A007903FF12537C7B6D
:0A591200017A1179577F0102537CDE
:103E8300900512E0FF04F074F12FF582E4340AF593
:103E930083E0FF900512E0FE04F074F12EF582E456
:103EA300340AF583E0901136F0900512E0FE04F039
:103EB30074F12EF582E4340AF583E0901137F0EFC4
:103EC3001251A53EFA803F07813F16903F1D913F57
:103ED30023923F35933F9E94419096421B974049CE
:103EE300B340C6B4412BB542AFB83FE4BA42D7E0C2
:103EF3004307E100004371901136E075F008A4AE6A
:103F0300F0024303901136E075F008A4AEF04402CA
:103F13000243559011727401F022E4901172F02261
:103F2300E4901171F0901170F090116FF090116E98
:023F3300F0227A
:103F3500901137E0FF901136E075F01DA42472F55D
:103F450082E5F03402F583EFF09011387401F090BA
:103F55001138E0FFC3941D748094804003024371BF
:103F6500900512E0FE04F074F12EF582E4340AF5B2
:103F750083E0FE901136E075F01DA42472F582E50C
:103F8500F03402F583E5822FF582E43583F583EE7F
:093F9500F0901138E004F080B650
:103F9E00901137E0900442F09011387401F09011B6
:103FAE0038E0FFC3940574809480400302437190FF
:103FBE000512E0FE04F074F12EF582E4340AF58366
:103FCE00E0FE74422FF582E43404F583EEF0901196
:063FDE0038E004F080C889
:103FE400900AC4E0FF04F074F12FF582E4340BF579
:103FF40083749AF0900AC4E0FF04F074F12FF58200
:10400400E4340BF583E4F0901138F0901138E0FFBC
:10401400C3941E74809480400302437174102FF57E
:1040240082E43400F583E0547FFF900AC4E0FE0488
:10403400F074F12EF582E4340BF583EFF09011382F
:05404400E004F080C65D
:10404900900AC4E0FF04F074F12FF582E4340BF513
:10405900837493F0901136E0FF900AC4E0FE04F0F7
:1040690074F12EF582E4340BF583EFF0E490113806
:10407900F0901138E0FFC3941D74809480400302CE
:104089004371901136E075F01DA42472F582E5F0B4
:104099003402F583E5822FF582E43583F583E05414
:1040A9007FFF900AC4E0FE04F074F12EF582E43437
:0D40B9000BF583EFF0901138E004F080B4B7
:1040C600900AC4E0FF04F074F12FF582E4340BF596
:1040D600837494F0900AC4E0FF04F074F12FF58223
:1040E600E4340BF583E4F0901138F0901138E0FFDA
:1040F600C3940574809480400302437174422FF583
:1041060082E43404F583E0547FFF900AC4E0FE04A1
:10411600F074F12EF582E4340BF583EFF09011384C
:05412600E004F080C67A
:10412B00900AC4E0FF04F074F12FF582E4340BF530
:10413B00837495F0900AC4E0FF04F074F12FF582BC
:10414B00E4340BF583E4F0901138F0901138E0FF74
:10415B00C39410748094804003024371741C2FF538
:10416B0082E43402F583E0547FFF900AC4E0FE043E
:10417B00F074F12EF582E4340BF583EFF0901138E7
:05418B00E004F080C615
:10419000E4901139F0A3F07B017A02791C90115D53
:1041A0007410F0E4FDFC7FE012565990113AE024BF
:1041B00010F0901139E03400F0E4901138F09011D3
:1041C00038E0FFC39410748094805036EF75F01D72
:1041D000A42472F9740235F0FA7B01A3E0FCA3E099
:1041E000FD90115D741DF07FE012565990113AE078
:1041F000241DF0901139E03400F0901138E004F003
:1042000080BC901139E0FCA3E0FD7B017A04794287
:0842100090115D7405F07FE0E0
:0C4218000242AC90070BE07003024371FF
:10422400E4901139F0A3F07B017A02791C90115DBE
:104234007410F0E4FDFC7FA012565990113AE0246A
:1042440010F0901139E03400F0E4901138F090113E
:1042540038E0FFC39410748094805036EF75F01DDD
:10426400A42472F9740235F0FA7B01A3E0FCA3E004
:10427400FD90115D741DF07FA012565990113AE023
:10428400241DF0901139E03400F0901138E004F06E
:1042940080BC901139E0FCA3E0FD7B017A047942F3
:0B42A40090115D7405F07FA0025659D8
:1042AF00900AC4E0FF04F074F12FF582E4340BF5AB
:1042BF00837498F0900AC4E0FF04F074F12FF58234
:1042CF00E4340BF583E4F022901137E070030243DE
:0142DF00716D
:1042E000901136E0FF1264B2901138EFF03395E090
:1042F000FEEFF47002EEF46078EF7803C333CE3350
:05430000CED8F94403D2
:02430500804EE8
:10430700901136E0FF1264B2901138EFF03395E068
:10431700FEEFF47002EEF46051901137E06014EF95
:104327007803C333CE33CED8F9FFEE4402FEEF4411
:1043370087801B901138E0FF3395E0FEEF7803C3C9
:1043470033CE33CED8F9FFEE4403FEEF4487FF9018
:10435700071EE0FD04F075F002EDA42421F582E5C7
:0A436700F03408F583EEF0A3EFF048
:014371002229
:10656500438780E589540F4420F589758DFF75981B
:0C65750070D28EC299C298D2ACC2BC2277
:03002300025DD0AB
:105DD000C0E0C083C082C0D075D010209803025E9E
:105DE00070900AF0E599F0C298E0FF30E723900048
:105DF0002EE4F0EF246C600B04701090071D741FEC
:105E0000F0800E90071D7407F0800690071D740344
:105E1000F0900AF0E0FF90002EE0FE04F0741F2ED8
:105E2000F582E43407F583EFF090071DE0FF900062
:065E30002EE0C39F403A82
:105E3600901103E4F090071DE0FF901103E0FEC30C
:105E46009F5027741F2EF582E43407F583E0FF90F8
:105E56000AC2E0FE04F074F12EF582E4340AF583FA
:0A5E6600EFF0901103E004F080CB90
:105E7000309939900AC4E0FF900513E0FE6F60246A
:105E800074F12EF582E4340BF583E020E7169005DB
:105E900013E0FF04F074F12FF582E4340BF583E096
:105EA000F5998006900AC37401F0C299D0D0D082CF
:055EB000D083D0E032B8
:10000E00E58954F04401F589758CDB758AFFC2B918
:05001E00D2A9D28C22E2
:03000B0002635835
:10635800C0E0C083C082C0D0758CDB758AFF901105
:106368006DE004F0E0D39409748094804002E4F076
:1063780090116DE07049901172E0604390116EE0E9
:10638800240AF0E0D3945A748094804032E4F0A355
:10639800E004F0E0D3943B748094804022E4F0A3BE
:1063A800E004F0E0D3943B748094804012E4F0A3BE
:1063B800E004F0E0D39417748094804002E4F0D0B5
:0863C800D0D082D083D0E03276
:10624F00C00080002020202020202020202020207F
:10625F0020202020008400546F67676C65206279CE
:10626F002053454C4543540059657320202020206E
:10627F00202020202020202000204E6F20202020B2
:10628F0020202020202020202000536176696E6777
:10629F002E2E2E004F7468657220436F6E666967ED
:1062AF002E20202000507265737320456E74657226
:1062BF002F45736320004D6F64756C652078783AB5
:0762CF002078787820200000
:04002E00AD07AC0668
:10003200EF5487FBED7803CEC313CE13D8F9540FD8
:10004200901136F0EC20E0047F0180027F009011D5
:1000520037EFF0EC5402FEED5487FFBE0205BF8776
:10006200027B88EB1251A5009A000732010A860230
:10007200116F0317B30617B507193E801A3E812286
:10008200B082247C8323588425F78527068627C6D9
:10009200872A8C8800002BA9900704E06401700372
:1000A200022BA9901136E0FF241CF582E43402F5FC
:1000B20083E024FE70030205C4046003022BA990AE
:1000C2001137E0700302043AEF75F008A42449F5F1
:1000D20082E4340AF583E020E70302019D901136A1
:1000E200E0FF75F01DA4247EF582E5F03402F5836D
:1000F200E0700302019D74472FF582E43404F58316
:10010200E04408F074472FF582E43404F583E044B8
:1001120004F0125A71900457E054F7F0901136E04F
:10012200FF2447F582E43404F583E0FE30E01074E6
:10013200472FF582E43404F583EE4410F0804690B4
:100142001136E0FF75F008A42449F582E4340AF57B
:1001520083E030E73075F01DEFA42480F582E5F0EE
:100162003402F583E0601E901136E02447F582E404
:100172003404F583E030E40D900444E06007900419
:1001820057E04408F0901136E02432F582E4340A54
:10019200F5837401F01262D6020349901136E0FF32
:1001A20075F008A42448F582E4340AF583E030E7C8
:1001B2000302027675F01DEFA4247CF582E5F0348B
:1001C20002F583E07003020276901136E02447F5CF
:1001D20082E43404F583E04408F074472FF582E4A6
:1001E2003404F583E04404F0125A71901136E0FDB4
:1001F20075F01DA42489F582E5F03402F583E070E0
:1002020003020352900457E054F7F074472DF5822D
:10021200E43404F583E0FF30E011901136E0244726
:10022200F582E43404F583EF4410F0901136E0FFD8
:1002320075F008A42448F582E4340AF583E020E747
:100242003075F01DEFA42480F582E5F03402F583C9
:10025200E0601E901136E02447F582E43404F58311
:10026200E030E40D900444E06007900457E0440855
:10027200F0020349901136E0FF75F008A42448F516
:1002820082E4340AF583E020E70302035275F01D8D
:10029200EFA4247DF582E5F03402F583E0700302D9
:1002A2000352901136E02447F582E43404F583E0EA
:1002B2004408F074472FF582E43404F583E04404E3
:1002C200F0125A71901136E0FD75F01DA4248AF5E2
:1002D20082E5F03402F583E06076900457E054F74B
:1002E200F074472DF582E43404F583E0FF30E01129
:1002F200901136E02447F582E43404F583EF44108C
:10030200F0901136E0FF75F008A42448F582E43439
:100312000AF583E030E73075F01DEFA42480F58202
:10032200E5F03402F583E0601E901136E02447F5D3
:1003320082E43404F583E030E40D900444E0600785
:10034200900457E04408F012641E900ADE7401F033
:10035200901136E0FF75F008A42449F582E4340ACE
:10036200F583E0FD30E72D75F01DEFA4248BF582B7
:10037200E5F03402F583E0601B901136E075F00879
:10038200A4AEF04403FF90071EE0FC04F075F002F7
:10039200EC020427901136E0FF75F008A42448F51A
:1003A20082E4340AF583E0FC20E73075F01DEFA407
:1003B200248CF582E5F03402F583E0601EED20E73F
:1003C2001A901136E075F008A4AEF04403FF9007CE
:1003D2001EE0FD04F075F002ED804AEC20E7030216
:1003E20006BF901136E0FF75F01DA4248DF582E55D
:1003F200F03402F583E070030206BFEF75F008A443
:100402002449F582E4340AF583E020E72890113686
:10041200E075F008A4AEF04403FF90071EE0FD046F
:10042200F075F002EDA42421F582E5F03408F5839D
:10043200EEF0A3EFF00206BF901136E0FF75F00870
:10044200A42449F582E4340AF583E030E77C75F0B0
:100452001DEFA4247EF582E5F03402F583E0606AA4
:10046200901136E02447F582E43404F583E054F732
:10047200F074472FF582E43404F583E054FBF090E6
:100482001136E0FF2447F582E43404F583E0FE30C0
:10049200E523EF75F008A42443F582E4340AF583DA
:1004A200E030E711901136E02447F582E43404F598
:1004B20083EE54EFF0901136E02432F582E4340AF0
:1004C200F583E4F01262D60205B8901136E0FF75AA
:1004D200F008A42448F582E4340AF583E0FE20E71C
:1004E2006975F01DEFA4247CF582E5F03402F583F2
:1004F200E06057901136E02447F582E43404F58336
:10050200E054F7F074472FF582E43404F583E054A5
:10051200FBF0901136E0FF2447F582E43404F583C2
:10052200E0FD30E523EF75F008A42443F582E434BE
:100532000AF583E030E711901136E02447F582E4B2
:100542003404F583ED54EFF0806CEE30E76E9011D9
:1005520036E0FF75F01DA4247DF582E5F03402F546
:1005620083E0605874472FF582E43404F583E05445
:10057200F7F074472FF582E43404F583E054FBF07E
:10058200901136E0FF2447F582E43404F583E0FE5F
:1005920030E523EF75F008A42443F582E4340AF52C
:1005A20083E030E711901136E02447F582E4340409
:1005B200F583EE54EFF0900ADE7401F0125A7102E4
:1005C200116C901137E070030206C2901136E0FF01
:1005D20075F008A42448F582E4340AF583E0FD208E
:1005E200E72C75F01DEFA4247CF582E5F03402F5CA
:1005F20083E0601A901136E075F008A4AEF0440270
:10060200FF90071EE0FC04F075F002EC802FED3045
:10061200E73D901136E0FF75F01DA4247DF582E5DB
:10062200F03402F583E06027EF75F008A4AEF044E1
:1006320002FF90071EE0FD04F075F002EDA42421F4
:10064200F582E5F03408F583EEF0A3EFF0806E90CA
:100652001136E0FF75F008A42449F582E4340AF566
:1006620083E030E75875F01DEFA4247EF582E5F0B3
:100672003402F583E06046901136E02447F582E4C7
:100682003404F583E04408F074472FF582E434041F
:10069200F583E04404F0901136E0FF2447F582E44C
:1006A2003404F583E0FE20E00E74472FF582E43433
:1006B20004F583EE4410F0900ADE7401F002116C2E
:1006C200901136E0FF75F008A42449F582E4340A5B
:1006D200F583E030E75775F01DEFA4247EF582E53F
:1006E200F03402F583E06045901136E02447F5824C
:1006F200E43404F583E0FE30E03374472FF582E4FE
:100702003404F583EE54F7F074472FF582E4340491
:10071200F583E054FBF0901136E02447F582E4348F
:1007220004F583E054EFF0900ADE7401F002116CDC
:10073200901136E0FF241CF582E43402F583E024B4
:10074200FE70030208DF046003022BA9901137E058
:10075200700302085174472FF582E43404F583E0F4
:10076200FF20E50302081A901136E02447F582E4DF
:100772003404F583EF4401F01249CB901136E0FFC7
:10078200125EB5901136E0FF2447F582E43404F599
:1007920083E054F7F074472FF582E43404F583E0E4
:1007A20054FBF0900442E0605B901136E0FF75F07C
:1007B20008A42443F582E4340AF583E030E7457463
:0D07C200472FF582E43404F583E030E5377D
:1007CF00E4901138F0901138E0C394107480948045
:1007DF005025E0FF2447F582E43404F583E054F715
:1007EF00F074472FF582E43404F583E054FBF09066
:0707FF001138E004F080CE88
:10080600126066125A7112591C901136E0FF124C92
:1008160083020A55901136E0FF75F01DA42478F581
:1008260082E5F03402F583E0601975F01DEFA4242B
:1008360079F582E5F03402F583E07007901136E031
:10084600124C83901136E0FF025EB5901136E0FF40
:100856002447F582E43404F583E04410F074472F0E
:10086600F582E43404F583E030E52C901136E0FFA0
:1008760075F01DA42478F582E5F03402F583E06076
:1008860003124C831249CB901136E0FF125EB5126B
:100896005A7112591C802F901136E0FF75F01DA475
:1008A6002478F582E5F03402F583E0601975F01DD1
:1008B600EFA42479F582E5F03402F583E070079021
:1008C6001136E0124C83901136E02447F582E43469
:1008D60004F583E054FE020A82901137E0700302A9
:1008E6000A67901136E0FF2447F582E43404F58365
:0708F600E020E503022BA93D
:1008FD0012646B901138EFF03395E0FEC364809471
:10090D00804049EF9404EE64809480503F900AC477
:10091D00E0FF04F074F12FF582E4340BF58374C21B
:10092D00F0901138E0FF900AC4E0FE04F074F12E4F
:10093D00F582E4340BF583EFF0900AC4E0FF04F088
:10094D0074F12FF582E4340BF583E4F01249CB906A
:10095D001136E0FF125EB5901136E0FF2447F582A7
:10096D00E43404F583E054F7F074472FF582E43452
:10097D0004F583E054FBF0900442E07003020A5248
:10098D00901136E0FF75F008A42443F582E4340A93
:10099D00F583E020E703020A5274472FF582E43411
:0A09AD0004F583E020E503020A527E
:1009B700E4901139F0901139E0FFC39410748094DA
:0609C700804003020A5209
:1009CD0012646B90113AEFF03395E0FEC36480949E
:1009DD00804049EF9404EE64809480503F900AC4A7
:1009ED00E0FF04F074F12FF582E4340BF58374C24B
:1009FD00F090113AE0FF900AC4E0FE04F074F12E7D
:100A0D00F582E4340BF583EFF0900AC4E0FF04F0B7
:100A1D0074F12FF582E4340BF583E4F0901139E095
:100A2D00FF2447F582E43404F583E054F7F074476E
:0C0A3D002FF582E43404F583E054FBF054
:090A4900901139E004F00209BC2F
:100A5200126066901136E02447F582E43404F5838F
:030A6200E054EF6E
:100A6500801B1249CB901136E0FF125EB59011360E
:100A7500E02447F582E43404F583E04410F00229CC
:100A850006900704E0146003020DF5901137E0703D
:0D0A950003022BA9900446E07003022BA978
:100AA20078397C117D017BFF7A6279C57E007F11E6
:100AB2001250DB90081FE0FF901136E0FE75F01D2A
:100AC200A42472F582E5F03402F583E5822FF582E3
:100AD200E43583F583E0601D75F01DEEA42472F504
:100AE20082E5F03402F583E5822FF582E43583F561
:100AF20083E4F0802190081FE0FF75F01DEEA4242E
:100B020072F582E5F03402F583E5822FF582E43551
:100B120083F5837401F0901136E0FF241CF582E422
:100B22003402F583E064026003020BB490081FE014
:100B3200FE1251A50B73020B90030B90040B73056D
:100B42000B73060B90070B90080B73090B730C0BBE
:100B5200730D0B730E0B730F0B73120B73150B7359
:100B6200170B73180B73190B731A0B731B00000B03
:100B7200B475F01DEFA42472F582E5F03402F5831A
:100B8200E5822EF582E43583F583E4F08024900833
:100B92001FE0FF901136E075F01DA42472F582E586
:100BA200F03402F583E5822FF582E43583F5837410
:100BB20001F090081FE024FDB416004003020CA9C6
:100BC200900BD075F003A4C58325F0C58373020C86
:100BD20012020C12020C12020C12020C12020C1261
:100BE200020C12020CA9020CA9020CA9020C3D0271
:100BF2000C47020CA1020CA6020CA6020CA6020CC7
:100C0200A6020CA6020CA6020CA9020C42020C427D
:100C1200E490114AF090114AE0FFC394107480945A
:100C2200804003020CA9E4FD125BC990114AE0FF67
:0B0C3200125EB590114AE004F080DA79
:100C3D00125A718067125A71805A901136E0241C35
:0C0C4D00F582E43402F583E06401704697
:100C590090114AF090114AE0FFC394107480948077
:100C69005034901136E0FEEF6E602390081FE0FFCC
:100C790090114AE075F01DA42472F582E5F0340262
:100C8900F583E5822FF582E43583F583E4F090114D
:060C99004AE004F080BEF9
:100C9F00800012591C80031249CB901136E02401B9
:100CAF00FBE433FA7C007D0AAF03FE125150EF24B0
:100CBF0030901140F07C007D0AAF03AE021251500C
:100CCF00ED2430A3F090081FE0FF6409703E9011EF
:100CDF0036E075F01DA42472F582E5F03402F58339
:100CEF00E5822FF582E43583F583E0901144600CA3
:100CFF007450F0A37475F0A3746C803D7443F0A32B
:100D0F00746FF0A314F0A37474F0803F90081FE089
:100D1F00FF901136E075F01DA42472F582E5F034D2
:100D2F0002F583E5822FF582E43583F583E0901198
:100D3F0044600D7459F0A37465F0A37473F0800BC5
:100D4F007420F0A3744EF0A3746FF07BFF7A627976
:100D5F004FE4FF12537C7B017A1179397F011253D3
:100D6F007C90081FE0FF1263D0900AC4E0FF04F0EC
:100D7F0074F12FF582E4340BF5837493F0901136F0
:100D8F00E0FF900AC4E0FE04F074F12EF582E43423
:100D9F000BF583EFF0E4901138F0901138E0FFC3BA
:100DAF00941D748094804003022BA9901136E07536
:100DBF00F01DA42472F582E5F03402F583E5822F4D
:100DCF00F582E43583F583E0547FFF900AC4E0FE9B
:100DDF0004F074F12EF582E4340BF583EFF09011EB
:060DEF0038E004F080B4BE
:100DF500901136E0FF241CF582E43402F583E024EB
:100E0500FE7003020F65046003022BA9901137E001
:100E15007003022BA974472FF582E43404F583E0AF
:070E2500FF20E203020EC4EE
:100E2C00901136E0FE2447F582E43404F583EF5448
:100E3C00F7F074472EF582E43404F583E054FBF0AC
:100E4C00901136E0FF124C83125A71900457E05403
:100E5C00F7F0E4901138F0901138E0FFC39410745F
:100E6C008094804003020F5974472FF582E43404B8
:100E7C00F583E0FF30E339901138E0FE75F008A4FB
:100E8C002449F582E4340AF583E030E72375F01D3C
:100E9C00EEA42480F582E5F03402F583E06011EFD6
:100EAC0030E40D900444E06007900457E04408F0EF
:080EBC00901138E004F0809F62
:100EC400901136E0FF2447F582E43404F583E044CE
:100ED40008F074472FF582E43404F583E04404F009
:100EE400901136E0FF124C83125A71900457E0546B
:100EF400F7F0E4901138F0901138E0FFC3941074C7
:100F0400809480505074472FF582E43404F583E0D4
:100F1400FF30E339901138E0FE75F008A42449F558
:100F240082E4340AF583E030E72375F01DEEA4244F
:100F340080F582E5F03402F583E06011EF30E40DD2
:100F4400900444E06007900457E04408F09011389E
:0E0F5400E004F080A212641E900ADE7401F028
:100F620002116C901137E07003022BA9901136E048
:100F7200FF75F008A42443F582E4340AF583E030D7
:050F8200E703022BA9AA
:100F870012646B901138EFF0901136E0FF2447F5AB
:100F970082E43404F583E0FE20E203021023744761
:100FA7002FF582E43404F583EE54F7F074472FF5F8
:100FB70082E43404F583E054FBF0901138E0FF330A
:100FC70095E0FEC3648094805003021163EF94049C
:100FD700EE648094804003021163900AC4E0FF042A
:100FE700F074F12FF582E4340BF58374C2F090119D
:100FF70038E0FF900AC4E0FE04F074F12EF582E4B5
:10100700340BF583EFF0900AC4E0FF04F074F12F7E
:10101700F582E4340BF583E4F0021163901136E0B6
:10102700FF2447F582E43404F583E04402F0744773
:101037002FF582E43404F583E04420F0901136E084
:10104700FF2447F582E43404F583E04408F074474D
:101057002FF582E43404F583E04401F0901136E083
:10106700FF2424F582E43405F583740AF0900AC45A
:10107700E0FE04F074F12EF582E4340BF5837482FC
:10108700F0900AC4E0FE04F074F12EF582E4340B0C
:10109700F583EFF0900AC4E0FF04F074F12FF582B6
:1010A700E4340BF5837401F0901138E0FF3395E0D9
:1010B700FEC364809480404AEF9404EE6480948079
:1010C7005040900AC4E0FF04F074F12FF582E43435
:1010D7000BF58374C0F0901138E0FF900AC4E0FE6E
:1010E70004F074F12EF582E4340BF583EFF0900AE7
:1010F700C4E0FF04F074F12FF582E4340BF5837438
:1011070001F0901138E0FF3395E0FEC364809480CE
:10111700404AEF9404EE648094805040900AC4E003
:10112700FF04F074F12FF582E4340BF58374C2F0F9
:10113700901138E0FF900AC4E0FE04F074F12EF538
:1011470082E4340BF583EFF0900AC4E0FF04F074F7
:10115700F12FF582E4340BF5837401F012641E90CD
:081167000ADE7401F00260666B
:10116F00901136E0FF241CF582E43402F583E0246D
:10117F00FE700302138A046003022BA975F01DEFA2
:10118F00A4248EF582E5F03402F583E0607B9011A4
:10119F0036E0FF2447F582E43404F583E04420F081
:1011AF0074472FF582E43404F583E04401F0901185
:1011BF0036E0FF2447F582E43404F583E054EFF082
:1011CF00901137E060177D01125BC9901136E02452
:1011DF00DFF582E4340AF5837401F080299011362B
:1011EF00E0FF75F01DA4247BF582E5F03402F58352
:1011FF00E07013FD125BC9901136E024DFF582E435
:10120F00340AF583E4F0022906901137E0700302E7
:10121F002BA9901136E0FF2447F582E43404F583BF
:10122F00E0FE30E563901136E0FD2447F582E434AB
:10123F0004F583EE54DFF074472DF582E43404F5A2
:10124F0083E054FEF0124C83901136E0FF2447F5F3
:10125F0082E43404F583E04410F0EF75F008A42421
:10126F0043F582E4340AF583E030E719901136E054
:10127F00FF124C83125A7112591C901136E0FF1253
:10128F005EB51249CB022906901136E0FF2447F5CF
:10129F0082E43404F583E04420F0124C839011363D
:1012AF00E075F008A42443F582E4340AF583E020C6
:1012BF00E703021387901136E0FF2447F582E434E9
:1012CF0004F583E04401F0124C83901136E0FF24C3
:1012DF0047F582E43404F583E054F7F074472FF5B3
:1012EF0082E43404F583E054FBF0900442E0605B49
:1012FF00901136E0FF75F008A42443F582E4340A18
:10130F00F583E030E74574472FF582E43404F58325
:04131F00E030E5379E
:10132300E4901138F0901138E0C3941074809480E5
:101333005025E0FF2447F582E43404F583E054F7B5
:10134300F074472FF582E43404F583E054FBF09006
:071353001138E004F080CE28
:10135A00126066901136E0FF125EB51249CB125A3E
:10136A007112591C901136E0FF124C83901136E02D
:10137A002447F582E43404F583E054EFF0022906A9
:09138A00901137E07003022BA959
:10139300901136E0FF12646B901138EFF090113624
:1013A300E0FF2447F582E43404F583E020E50302FB
:0213B3001568BB
:1013B50012646B901139EFF03395E0FEC3648094AD
:1013C50080500302144EEF9404EE648094805079AB
:1013D500900AC4E0FF04F074F12FF582E4340BF5B4
:1013E5008374C2F0901139E0FF900AC4E0FE04F066
:1013F50074F12EF582E4340BF583EFF0900AC4E026
:10140500FE04F074F12EF582E4340BF583E4F090DC
:101415000AC4E0FE04F074F12EF582E4340BF58382
:1014250074C3F0900AC4E0FE04F074F12EF582E472
:10143500340BF583EFF0900AC4E0FF04F074F12F4C
:10144500F582E4340BF583E4F0901136E0FF244790
:10145500F582E43404F583E054DFF074472FF58218
:10146500E43404F583E04410F0901136E0FF24479E
:10147500F582E43404F583E054FEF074472FF582D9
:10148500E43404F583E054FBF0901136E0FF244783
:10149500F582E43404F583E054F7F0749C2FF5826B
:1014A500E43404F583740AF0900AC4E0FF04F07490
:1014B500F12FF582E4340BF5837483F0901136E057
:1014C500FF900AC4E0FE04F074F12EF582E4340BBB
:1014D500F583EFF0900AC4E0FF04F074F12FF58274
:1014E500E4340BF5837401F0126066901136E0FF69
:1014F50075F008A42443F582E4340AF583E030E767
:1015050006125EB51249CB901139E0FF3395E0FE26
:10151500C3648094804049EF9404EE6480948050C5
:101525003F900AC4E0FF04F074F12FF582E4340B18
:10153500F58374C0F0901139E0FF900AC4E0FE0411
:10154500F074F12EF582E4340BF583EFF0900AC4C4
:10155500E0FF04F074F12FF582E4340BF583E4F039
:10156500022906901136E0FF2447F582E43404F59C
:1015750083E04420F074472FF582E43404F583E0DA
:101585004402F0901136E0FF2447F582E43404F577
:1015950083E04401F0900AC4E0FE04F074F12EF5F6
:1015A50082E4340BF5837482F0900AC4E0FE04F003
:1015B50074F12EF582E4340BF583EFF0900AC4E064
:1015C500FF04F074F12FF582E4340BF5837401F018
:1015D500901136E0FF75F008A42443F582E4340A3F
:0915E500F583E020E7030217562C
:1015EE0012646B901139EFF03395E0FEC364809472
:1015FE00804049EF9404EE64809480503F900AC47A
:10160E00E0FF04F074F12FF582E4340BF58374C21D
:10161E00F0901139E0FF900AC4E0FE04F074F12E50
:10162E00F582E4340BF583EFF0900AC4E0FF04F08A
:10163E0074F12FF582E4340BF583E4F0901136E06B
:10164E00FF2447F582E43404F583E054F7F0744741
:10165E002FF582E43404F583E054FBF0901136E06C
:10166E00FF2414F582E43405F583740AF0900442E5
:10167E00E07003021748EF75F008A42443F582E4E6
:10168E00340AF583E020E703021748901136E02470
:0F169E0047F582E43404F583E020E503021748A2
:1016AD00E490113AF090113AE0FFC39410748094D5
:0616BD0080400302174803
:1016C30012646B90113BEFF03395E0FEC36480949A
:1016D300804049EF9404EE64809480503F900AC4A4
:1016E300E0FF04F074F12FF582E4340BF58374C248
:1016F300F090113BE0FF900AC4E0FE04F074F12E79
:10170300F582E4340BF583EFF0900AC4E0FF04F0B4
:1017130074F12FF582E4340BF583E4F090113AE091
:10172300FF2447F582E43404F583E054F7F074476B
:0C1733002FF582E43404F583E054FBF051
:09173F0090113AE004F00216B228
:0E174800126066901136E0FF125EB51249CBBA
:10175600901138E0FF3395E0FEC364809480404AE0
:10176600EF9404EE648094805040900AC4E0FF0435
:10177600F074F12FF582E4340BF58374C0F0901108
:1017860038E0FF900AC4E0FE04F074F12EF582E41E
:10179600340BF583EFF0900AC4E0FF04F074F12FE8
:0A17A600F582E4340BF5837401F0C2
:1017B000022906803B901136E0FF241CF582E434B8
:1017C00002F583E024FE6052046003022BA9EF754A
:1017D000F008A42449F582E4340AF583E020E710F8
:1017E000900457E054F7F012641E900ADE7401F082
:1017F000901136E0FF124C83E4901171F09011705B
:10180000F090116FF090116EF0901136E0FF125EC3
:0A181000B5125A7112591C0249CB9F
:10181A00901136E0FF12646B901138EFF090113797
:10182A00E070030218B3901136E0FF2447F582E412
:10183A003404F583E04408F074472FF582E4340455
:10184A00F583E04401F0901138E0FF3395E0FEC3E0
:10185A0064809480500302193BEF9404EE648094F0
:10186A0080400302193B900AC4E0FF04F074F12F90
:10187A00F582E4340BF58374C1F0901138E0FF90DF
:10188A000AC4E0FE04F074F12EF582E4340BF58309
:10189A00EFF0900AC4E0FF04F074F12FF582E4340B
:1018AA000BF5837401F002193B901136E0FF2447CF
:1018BA00F582E43404F583E0FE20E11C74472FF539
:1018CA0082E43404F583EE54F7F074472FF582E48A
:1018DA003404F583E054FEF0901138E0FF3395E0CC
:1018EA00FEC3648094804049EF9404EE648094803F
:1018FA00503F900AC4E0FF04F074F12FF582E434FB
:10190A000BF58374C1F0901138E0FF900AC4E0FE31
:10191A0004F074F12EF582E4340BF583EFF0900AAB
:10192A00C4E0FF04F074F12FF582E4340BF583E48C
:01193A00F0BC
:10193B000229067BFF7A62794FE4FF12537C9011E8
:10194B0037E07003022BA9900704E07003021A0F13
:04195B006401707043
:10195F00901141F0901141E0C39410748094804035
:10196F00030221FFE4A3F0901142E0C3941D7480A1
:10197F0094805044E0FF901141E0FE75F01DA424C7
:10198F0034F582E5F03405F583E5822FF582E435F1
:10199F0083F583E0FD75F01DEEA42472F582E5F06A
:1019AF003402F583E5822FF582E43583F583EDF07C
:1019BF00901142E004F080AF901141E004F0809468
:0B19CF00900704E0640260030221FFA7
:1019DA00901141F0901141E0C394057480948040C5
:1019EA00030221FFE0FF2406F582E43407F583E0D1
:1019FA00FE74422FF582E43404F583EEF09011412F
:051A0A00E004F080CFB4
:101A0F0090081FE07011901171F0901170F090110B
:071A1F006FF090116EF02240
:101A26001243727BFF7A62794FE4FF12537C7BFF8D
:051A36007A627951E421
:101A3B0002220E901137E07003022BA9900704E0ED
:101A4B0024FD7003021BC5240360030221FF9008D1
:101A5B001FE014602A147003021B0C147003021B8A
:101A6B009624036003022BA9E4901171F09011707E
:0F1A7B00F090116FF090116EF090117204F02244
:101A8A00E4901138F0901138E0C394107480948077
:101A9A00505CE4A3F0901139E0C3941D74809480E3
:101AAA005044E0FF901138E0FE75F01DA42472F551
:101ABA0082E5F03402F583E5822FF582E43583F579
:101ACA0083E0FD75F01DEEA42434F582E5F03405BB
:101ADA00F583E5822FF582E43583F583EDF09011E5
:101AEA0039E004F080AF901138E004F08097900755
:0F1AFA00047401F0E490081FF07BFF7A627951C9
:031B09000224EAC9
:101B0C00E4901138F0901138E0C3940574809480FF
:101B1C005021E0FF2442F582E43404F583E0FE74A6
:101B2C00062FF582E43407F583EEF0901138E004CB
:101B3C00F080D29007047402F0E490081FF07BFF51
:101B4C007A627951FF12537C90081FE075F011A452
:101B5C00242CF9740235F0FA7B017F0112537C7B43
:101B6C00FF7A62794FE4FF12537C90081FE0244205
:101B7C00F582E43404F583E07BFF60077A627977C1
:071B8C000224217A6279882E
:101B93000224219007047403F0E490081FF07BFFF4
:101BA3007A627951FF12537C90081FE075F011A4FB
:101BB30024ACF9740435F0FA7B017F0112537C02E3
:021BC30025CC2F
:101BC50090081FE024FE7003021DB5147003021E69
:0E1BD5005A1470030220AE2403600302215351
:101BE300E4901142F0A3F0901142F0A3F07B017A4C
:101BF30002791C90115D7410F0E4FDFC7FE0125F2C
:101C030095901143E02410F0901142E03400F0E489
:101C1300901141F0901141E0FFC3941074809480BF
:101C23005036EF75F01DA42472F9740235F0FA7B77
:101C330001A3E0FCA3E0FD90115D741DF07FE012B1
:101C43005F95901143E0241DF0901142E03400F0C1
:101C5300901141E004F080BC901142E0FCA3E0FD50
:101C63007B017A04794290115D7405F07FE0125F85
:011C730095DB
:101C7400E4901145F0901145E0FFC39410748094F2
:101C8400804003021D50741C2FF582E43402F58356
:101C9400E0FF64016005EF64027078900AC4E0FF1D
:101CA40004F074F12FF582E4340BF5837493F0900F
:101CB4001145E0FF900AC4E0FE04F074F12EF582B1
:101CC400E4340BF583EFF0E4901144F0901144E018
:101CD400FFC3941D748094805039A3E075F01DA453
:101CE4002472F582E5F03402F583E5822FF582E46F
:101CF4003583F583E0547FFF900AC4E0FE04F0745A
:101D0400F12EF582E4340BF583EFF0901144E004F6
:101D1400F080B9900513E0FF900AC4E06F601E9054
:101D24000AC3E06018900513E004F074F12FF58203
:101D3400E4340BF583E0F599E4900AC3F0900AC308
:101D4400E060FA901145E004F0021C79900AC4E0C6
:101D5400FF04F074F12FF582E4340BF5837494F0EE
:101D6400900AC4E0FF04F074F12FF582E4340BF51B
:101D740083E4F0901144F0901144E0FFC39405749F
:101D8400809480400302215374422FF582E434048A
:101D9400F583E0547FFF900AC4E0FE04F074F12E52
:101DA400F582E4340BF583EFF0901144E004F08005
:011DB400C668
:101DB500E4901142F0A3F07BFF7A627951FF125350
:101DC5007C7BFF7A6279997F0112537C901142E006
:101DD500FCA3E0FD7B017A02791C90115D7410F083
:101DE5007FE0125659901143E02410F0901142E023
:101DF5003400F0E4901141F0901141E0FFC39410DC
:101E0500748094805036EF75F01DA42472F9740225
:101E150035F0FA7B01A3E0FCA3E0FD90115D741D94
:101E2500F07FE0125659901143E0241DF0901142C5
:101E3500E03400F0901141E004F080BC901142E0E4
:101E4500FCA3E0FD7B017A04794290115D7405F0F5
:021E55007FE02C
:031E570002215015
:101E5A00E4901152F0A3F0A3F07B017A117941903A
:101E6A00115D7410F0E4FDFC7FA0125F95E49011FF
:101E7A0051F0901151E0C39410748094805029E07D
:101E8A00FF2441F582E43411F583E0FE741C2FF53A
:101E9A0082E43402F583E06E60069011547401F016
:101EAA00901151E004F080CA901154E060030220BE
:101EBA008E901153E02410F0901152E03400F0E4B7
:101ECA00901151F0901151E0FFC3941074809480E6
:101EDA005036EF75F01DA42472F9740235F0FA7BBE
:101EEA0001A3E0FCA3E0FD90115D741DF07FA01238
:101EFA005F95901153E0241DF0901152E03400F0E8
:101F0A00901151E004F080BC901152E0FCA3E0FD76
:101F1A007B017A04794290115D7405F07FA0125F0B
:011F2A009521
:101F2B00E4901156F0901156E0FFC3941074809416
:101F3B00804003022029741C2FF582E43402F583C0
:101F4B00E0FF64016008EF64026003021FF0900A77
:101F5B00C4E0FF04F074F12FF582E4340BF58374C5
:101F6B0093F0901156E0FF900AC4E0FE04F074F178
:101F7B002EF582E4340BF583EFF0E4901155F090DD
:101F8B001155E0C3941D748094805059E0FFA3E079
:101F9B00FE75F01DA42472F582E5F03402F583E59D
:101FAB00822FF582E43583F583E05401F075F01D43
:101FBB00EEA42472F582E5F03402F583E5822FF569
:101FCB0082E43583F583E0547FFF900AC4E0FE047E
:101FDB00F074F12EF582E4340BF583EFF09011558C
:101FEB00E004F0809A900513E0FF900AC4E06F6064
:101FFB001E900AC3E06018900513E004F074F12FF3
:10200B00F582E4340BF583E0F599E4900AC3F09084
:10201B000AC3E060FA901156E004F0021F30900AF8
:10202B00C4E0FF04F074F12FF582E4340BF58374F4
:10203B0094F0900AC4E0FF04F074F12FF582E434BD
:10204B000BF583E4F0901155F0901155E0FFC3941C
:10205B000574809480400302215374422FF582E46F
:10206B003404F583E0547FFF900AC4E0FE04F0745F
:10207B00F12EF582E4340BF583EFF0901155E0046B
:03208B00F080C61C
:10208E007BFF7A62794FE4FF12537C7BFF7A627991
:0D209E00A37F0112537C7F647E0012653821
:0320AB00022153BC
:1020AE00E4901142F0A3F07BFF7A627951FF125354
:1020BE007C7BFF7A6279997F0112537C901142E00A
:1020CE00FCA3E0FD7B017A02791C90115D7410F087
:1020DE007FA0125659901143E02410F0901142E067
:1020EE003400F0E4901141F0901141E0FFC39410E0
:1020FE00748094805036EF75F01DA42472F974022A
:10210E0035F0FA7B01A3E0FCA3E0FD90115D741D98
:10211E00F07FA0125659901143E0241DF090114209
:10212E00E03400F0901141E004F080BC901142E0E8
:10213E00FCA3E0FD7B017A04794290115D7405F0F9
:05214E007FA0125659AC
:10215300E4900704F090081FF07BFF7A627951FF47
:1021630012537C7BFF7A6279537F0112537C7BFF8E
